{"abi":[{"type":"constructor","inputs":[{"name":"_admin","type":"address","internalType":"address"}],"stateMutability":"nonpayable"},{"type":"receive","stateMutability":"payable"},{"type":"function","name":"admin","inputs":[],"outputs":[{"name":"","type":"address","internalType":"address"}],"stateMutability":"view"},{"type":"function","name":"sendETH","inputs":[],"outputs":[],"stateMutability":"payable"},{"type":"function","name":"sendETHtoUser","inputs":[{"name":"user","type":"address","internalType":"address payable"}],"outputs":[],"stateMutability":"nonpayable"},{"type":"event","name":"SentETH","inputs":[{"name":"from","type":"address","indexed":true,"internalType":"address"},{"name":"to","type":"address","indexed":true,"internalType":"address"},{"name":"amount","type":"uint256","indexed":false,"internalType":"uint256"}],"anonymous":false}],"bytecode":{"object":"0x608060405234801561000f575f80fd5b5060405161035738038061035783398101604081905261002e91610052565b5f80546001600160a01b0319166001600160a01b039290921691909117905561007f565b5f60208284031215610062575f80fd5b81516001600160a01b0381168114610078575f80fd5b9392505050565b6102cb8061008c5f395ff3fe608060405260043610610036575f3560e01c80631d16d9a014610041578063b1263daa1461004b578063f851a4401461006a575f80fd5b3661003d57005b5f80fd5b6100496100a4565b005b348015610056575f80fd5b50610049610065366004610268565b610138565b348015610075575f80fd5b505f54610088906001600160a01b031681565b6040516001600160a01b03909116815260200160405180910390f35b34662386f26fc10000146100ff5760405162461bcd60e51b815260206004820152601a60248201527f4d7573742073656e642065786163746c7920302e30312045544800000000000060448201526064015b60405180910390fd5b604051348152309033907ff4fd50289a370d78e346846f93a4486d8f208bd4625376267dc4fda7fd8155299060200160405180910390a3565b5f546001600160a01b031633146101915760405162461bcd60e51b815260206004820152601760248201527f4f6e6c792061646d696e2063616e2073656e642045544800000000000000000060448201526064016100f6565b662386f26fc100004710156101e85760405162461bcd60e51b815260206004820152601a60248201527f4e6f7420656e6f7567682045544820696e20636f6e747261637400000000000060448201526064016100f6565b6040516001600160a01b038216905f90662386f26fc100009082818181858883f1935050505015801561021d573d5f803e3d5ffd5b50604051662386f26fc1000081526001600160a01b0382169030907ff4fd50289a370d78e346846f93a4486d8f208bd4625376267dc4fda7fd8155299060200160405180910390a350565b5f60208284031215610278575f80fd5b81356001600160a01b038116811461028e575f80fd5b939250505056fea2646970667358221220f39fb61d1f6f6e6b3aba1d1f3a3fe92d8f0993008685b5e1d62c517a067ce18264736f6c63430008140033","linkReferences":{}},"methodIdentifiers":{"admin()":"f851a440","sendETH()":"1d16d9a0","sendETHtoUser(address)":"b1263daa"},"id":15}